{
  "_format": "hh-sol-artifact-1",
  "contractName": "MyEpicGame",
  "sourceName": "contracts/MyEpicGame.sol",
  "abi": [
    {
      "inputs": [
        {
          "internalType": "string[]",
          "name": "characterNames",
          "type": "string[]"
        },
        {
          "internalType": "string[]",
          "name": "characterImageURI",
          "type": "string[]"
        },
        {
          "internalType": "uint256[]",
          "name": "characterHP",
          "type": "uint256[]"
        },
        {
          "internalType": "uint256[]",
          "name": "characterAD",
          "type": "uint256[]"
        },
        {
          "internalType": "uint256[]",
          "name": "characterAP",
          "type": "uint256[]"
        },
        {
          "internalType": "string[]",
          "name": "bossNames",
          "type": "string[]"
        },
        {
          "internalType": "string[]",
          "name": "bossImageURI",
          "type": "string[]"
        },
        {
          "internalType": "uint256[]",
          "name": "bossHP",
          "type": "uint256[]"
        },
        {
          "internalType": "uint256[]",
          "name": "bossAttack",
          "type": "uint256[]"
        },
        {
          "internalType": "uint256[]",
          "name": "bossRatioAD",
          "type": "uint256[]"
        },
        {
          "internalType": "uint256[]",
          "name": "bossRatioAP",
          "type": "uint256[]"
        }
      ],
      "stateMutability": "nonpayable",
      "type": "constructor"
    },
    {
      "anonymous": false,
      "inputs": [
        {
          "indexed": true,
          "internalType": "address",
          "name": "owner",
          "type": "address"
        },
        {
          "indexed": true,
          "internalType": "address",
          "name": "approved",
          "type": "address"
        },
        {
          "indexed": true,
          "internalType": "uint256",
          "name": "tokenId",
          "type": "uint256"
        }
      ],
      "name": "Approval",
      "type": "event"
    },
    {
      "anonymous": false,
      "inputs": [
        {
          "indexed": true,
          "internalType": "address",
          "name": "owner",
          "type": "address"
        },
        {
          "indexed": true,
          "internalType": "address",
          "name": "operator",
          "type": "address"
        },
        {
          "indexed": false,
          "internalType": "bool",
          "name": "approved",
          "type": "bool"
        }
      ],
      "name": "ApprovalForAll",
      "type": "event"
    },
    {
      "anonymous": false,
      "inputs": [
        {
          "indexed": false,
          "internalType": "uint256",
          "name": "newBossHp",
          "type": "uint256"
        },
        {
          "indexed": false,
          "internalType": "uint256",
          "name": "newPlayerHp",
          "type": "uint256"
        }
      ],
      "name": "AttackComplete",
      "type": "event"
    },
    {
      "anonymous": false,
      "inputs": [
        {
          "indexed": false,
          "internalType": "address",
          "name": "sender",
          "type": "address"
        },
        {
          "indexed": false,
          "internalType": "uint256",
          "name": "tokenId",
          "type": "uint256"
        },
        {
          "indexed": false,
          "internalType": "uint256",
          "name": "characterIndex",
          "type": "uint256"
        }
      ],
      "name": "CharacterNFTMinted",
      "type": "event"
    },
    {
      "anonymous": false,
      "inputs": [
        {
          "indexed": false,
          "internalType": "uint256",
          "name": "bossId",
          "type": "uint256"
        },
        {
          "indexed": false,
          "internalType": "string",
          "name": "bossName",
          "type": "string"
        }
      ],
      "name": "NewBoss",
      "type": "event"
    },
    {
      "anonymous": false,
      "inputs": [
        {
          "indexed": true,
          "internalType": "address",
          "name": "from",
          "type": "address"
        },
        {
          "indexed": true,
          "internalType": "address",
          "name": "to",
          "type": "address"
        },
        {
          "indexed": true,
          "internalType": "uint256",
          "name": "tokenId",
          "type": "uint256"
        }
      ],
      "name": "Transfer",
      "type": "event"
    },
    {
      "inputs": [
        {
          "internalType": "address",
          "name": "to",
          "type": "address"
        },
        {
          "internalType": "uint256",
          "name": "tokenId",
          "type": "uint256"
        }
      ],
      "name": "approve",
      "outputs": [],
      "stateMutability": "nonpayable",
      "type": "function"
    },
    {
      "inputs": [],
      "name": "attackBoss",
      "outputs": [],
      "stateMutability": "nonpayable",
      "type": "function"
    },
    {
      "inputs": [
        {
          "internalType": "address",
          "name": "owner",
          "type": "address"
        }
      ],
      "name": "balanceOf",
      "outputs": [
        {
          "internalType": "uint256",
          "name": "",
          "type": "uint256"
        }
      ],
      "stateMutability": "view",
      "type": "function"
    },
    {
      "inputs": [],
      "name": "checkIfUserHasNFT",
      "outputs": [
        {
          "components": [
            {
              "internalType": "uint256",
              "name": "index",
              "type": "uint256"
            },
            {
              "internalType": "string",
              "name": "name",
              "type": "string"
            },
            {
              "internalType": "string",
              "name": "imageURI",
              "type": "string"
            },
            {
              "internalType": "uint256",
              "name": "hp",
              "type": "uint256"
            },
            {
              "internalType": "uint256",
              "name": "maxhp",
              "type": "uint256"
            },
            {
              "internalType": "uint256",
              "name": "attackDamage",
              "type": "uint256"
            },
            {
              "internalType": "uint256",
              "name": "attackPower",
              "type": "uint256"
            }
          ],
          "internalType": "struct MyEpicGame.CharacterAttr",
          "name": "",
          "type": "tuple"
        }
      ],
      "stateMutability": "view",
      "type": "function"
    },
    {
      "inputs": [],
      "name": "generateNewBoss",
      "outputs": [],
      "stateMutability": "nonpayable",
      "type": "function"
    },
    {
      "inputs": [],
      "name": "getAllDefaultCharacters",
      "outputs": [
        {
          "components": [
            {
              "internalType": "uint256",
              "name": "index",
              "type": "uint256"
            },
            {
              "internalType": "string",
              "name": "name",
              "type": "string"
            },
            {
              "internalType": "string",
              "name": "imageURI",
              "type": "string"
            },
            {
              "internalType": "uint256",
              "name": "hp",
              "type": "uint256"
            },
            {
              "internalType": "uint256",
              "name": "maxhp",
              "type": "uint256"
            },
            {
              "internalType": "uint256",
              "name": "attackDamage",
              "type": "uint256"
            },
            {
              "internalType": "uint256",
              "name": "attackPower",
              "type": "uint256"
            }
          ],
          "internalType": "struct MyEpicGame.CharacterAttr[]",
          "name": "",
          "type": "tuple[]"
        }
      ],
      "stateMutability": "view",
      "type": "function"
    },
    {
      "inputs": [
        {
          "internalType": "uint256",
          "name": "tokenId",
          "type": "uint256"
        }
      ],
      "name": "getApproved",
      "outputs": [
        {
          "internalType": "address",
          "name": "",
          "type": "address"
        }
      ],
      "stateMutability": "view",
      "type": "function"
    },
    {
      "inputs": [],
      "name": "getBoss",
      "outputs": [
        {
          "components": [
            {
              "internalType": "uint256",
              "name": "index",
              "type": "uint256"
            },
            {
              "internalType": "string",
              "name": "name",
              "type": "string"
            },
            {
              "internalType": "string",
              "name": "imageURI",
              "type": "string"
            },
            {
              "internalType": "uint256",
              "name": "hp",
              "type": "uint256"
            },
            {
              "internalType": "uint256",
              "name": "maxhp",
              "type": "uint256"
            },
            {
              "internalType": "uint256",
              "name": "attack",
              "type": "uint256"
            },
            {
              "internalType": "uint256",
              "name": "ratioAD",
              "type": "uint256"
            },
            {
              "internalType": "uint256",
              "name": "ratioAP",
              "type": "uint256"
            }
          ],
          "internalType": "struct MyEpicGame.Boss",
          "name": "",
          "type": "tuple"
        }
      ],
      "stateMutability": "view",
      "type": "function"
    },
    {
      "inputs": [
        {
          "internalType": "address",
          "name": "owner",
          "type": "address"
        },
        {
          "internalType": "address",
          "name": "operator",
          "type": "address"
        }
      ],
      "name": "isApprovedForAll",
      "outputs": [
        {
          "internalType": "bool",
          "name": "",
          "type": "bool"
        }
      ],
      "stateMutability": "view",
      "type": "function"
    },
    {
      "inputs": [
        {
          "internalType": "uint256",
          "name": "_characterIndex",
          "type": "uint256"
        }
      ],
      "name": "mintNFT",
      "outputs": [],
      "stateMutability": "nonpayable",
      "type": "function"
    },
    {
      "inputs": [],
      "name": "name",
      "outputs": [
        {
          "internalType": "string",
          "name": "",
          "type": "string"
        }
      ],
      "stateMutability": "view",
      "type": "function"
    },
    {
      "inputs": [
        {
          "internalType": "uint256",
          "name": "",
          "type": "uint256"
        }
      ],
      "name": "nftHolderAttr",
      "outputs": [
        {
          "internalType": "uint256",
          "name": "index",
          "type": "uint256"
        },
        {
          "internalType": "string",
          "name": "name",
          "type": "string"
        },
        {
          "internalType": "string",
          "name": "imageURI",
          "type": "string"
        },
        {
          "internalType": "uint256",
          "name": "hp",
          "type": "uint256"
        },
        {
          "internalType": "uint256",
          "name": "maxhp",
          "type": "uint256"
        },
        {
          "internalType": "uint256",
          "name": "attackDamage",
          "type": "uint256"
        },
        {
          "internalType": "uint256",
          "name": "attackPower",
          "type": "uint256"
        }
      ],
      "stateMutability": "view",
      "type": "function"
    },
    {
      "inputs": [
        {
          "internalType": "address",
          "name": "",
          "type": "address"
        }
      ],
      "name": "nftHolders",
      "outputs": [
        {
          "internalType": "uint256",
          "name": "",
          "type": "uint256"
        }
      ],
      "stateMutability": "view",
      "type": "function"
    },
    {
      "inputs": [
        {
          "internalType": "uint256",
          "name": "tokenId",
          "type": "uint256"
        }
      ],
      "name": "ownerOf",
      "outputs": [
        {
          "internalType": "address",
          "name": "",
          "type": "address"
        }
      ],
      "stateMutability": "view",
      "type": "function"
    },
    {
      "inputs": [
        {
          "internalType": "address",
          "name": "from",
          "type": "address"
        },
        {
          "internalType": "address",
          "name": "to",
          "type": "address"
        },
        {
          "internalType": "uint256",
          "name": "tokenId",
          "type": "uint256"
        }
      ],
      "name": "safeTransferFrom",
      "outputs": [],
      "stateMutability": "nonpayable",
      "type": "function"
    },
    {
      "inputs": [
        {
          "internalType": "address",
          "name": "from",
          "type": "address"
        },
        {
          "internalType": "address",
          "name": "to",
          "type": "address"
        },
        {
          "internalType": "uint256",
          "name": "tokenId",
          "type": "uint256"
        },
        {
          "internalType": "bytes",
          "name": "_data",
          "type": "bytes"
        }
      ],
      "name": "safeTransferFrom",
      "outputs": [],
      "stateMutability": "nonpayable",
      "type": "function"
    },
    {
      "inputs": [
        {
          "internalType": "address",
          "name": "operator",
          "type": "address"
        },
        {
          "internalType": "bool",
          "name": "approved",
          "type": "bool"
        }
      ],
      "name": "setApprovalForAll",
      "outputs": [],
      "stateMutability": "nonpayable",
      "type": "function"
    },
    {
      "inputs": [
        {
          "internalType": "bytes4",
          "name": "interfaceId",
          "type": "bytes4"
        }
      ],
      "name": "supportsInterface",
      "outputs": [
        {
          "internalType": "bool",
          "name": "",
          "type": "bool"
        }
      ],
      "stateMutability": "view",
      "type": "function"
    },
    {
      "inputs": [],
      "name": "symbol",
      "outputs": [
        {
          "internalType": "string",
          "name": "",
          "type": "string"
        }
      ],
      "stateMutability": "view",
      "type": "function"
    },
    {
      "inputs": [
        {
          "internalType": "uint256",
          "name": "_tokenId",
          "type": "uint256"
        }
      ],
      "name": "tokenURI",
      "outputs": [
        {
          "internalType": "string",
          "name": "",
          "type": "string"
        }
      ],
      "stateMutability": "view",
      "type": "function"
    },
    {
      "inputs": [
        {
          "internalType": "address",
          "name": "from",
          "type": "address"
        },
        {
          "internalType": "address",
          "name": "to",
          "type": "address"
        },
        {
          "internalType": "uint256",
          "name": "tokenId",
          "type": "uint256"
        }
      ],
      "name": "transferFrom",
      "outputs": [],
      "stateMutability": "nonpayable",
      "type": "function"
    }
  ],
  "bytecode": "0x60806040523480156200001157600080fd5b506040516200627238038062006272833981810160405281019062000037919062001242565b6040518060400160405280600881526020017f57697463686572730000000000000000000000000000000000000000000000008152506040518060400160405280600581526020017f57544348520000000000000000000000000000000000000000000000000000008152508160009080519060200190620000bb92919062000fd5565b508060019080519060200190620000d492919062000fd5565b50505060005b8651811015620005aa57600a60405180610100016040528083815260200189848151811062000132577f4e487b7100000000000000000000000000000000000000000000000000000000600052603260045260246000fd5b6020026020010151815260200188848151811062000179577f4e487b7100000000000000000000000000000000000000000000000000000000600052603260045260246000fd5b60200260200101518152602001878481518110620001c0577f4e487b7100000000000000000000000000000000000000000000000000000000600052603260045260246000fd5b6020026020010151815260200187848151811062000207577f4e487b7100000000000000000000000000000000000000000000000000000000600052603260045260246000fd5b602002602001015181526020018684815181106200024e577f4e487b7100000000000000000000000000000000000000000000000000000000600052603260045260246000fd5b6020026020010151815260200185848151811062000295577f4e487b7100000000000000000000000000000000000000000000000000000000600052603260045260246000fd5b60200260200101518152602001848481518110620002dc577f4e487b7100000000000000000000000000000000000000000000000000000000600052603260045260246000fd5b602002602001015181525090806001815401808255809150506001900390600052602060002090600802016000909190919091506000820151816000015560208201518160010190805190602001906200033892919062000fd5565b5060408201518160020190805190602001906200035792919062000fd5565b50606082015181600301556080820151816004015560a0820151816005015560c0820151816006015560e0820151816007015550506000600a8281548110620003c9577f4e487b7100000000000000000000000000000000000000000000000000000000600052603260045260246000fd5b90600052602060002090600802016040518061010001604052908160008201548152602001600182018054620003ff90620016b0565b80601f01602080910402602001604051908101604052809291908181526020018280546200042d90620016b0565b80156200047e5780601f1062000452576101008083540402835291602001916200047e565b820191906000526020600020905b8154815290600101906020018083116200046057829003601f168201915b505050505081526020016002820180546200049990620016b0565b80601f0160208091040260200160405190810160405280929190818152602001828054620004c790620016b0565b8015620005185780601f10620004ec5761010080835404028352916020019162000518565b820191906000526020600020905b815481529060010190602001808311620004fa57829003601f168201915b50505050508152602001600382015481526020016004820154815260200160058201548152602001600682015481526020016007820154815250509050620005936040518060600160405280602a815260200162006248602a913982602001518360600151846040015162000a5a60201b62001fbd1760201c565b508080620005a190620016e6565b915050620000da565b5060005b8b5181101562000a215760096040518060e001604052808381526020018e848151811062000605577f4e487b7100000000000000000000000000000000000000000000000000000000600052603260045260246000fd5b602002602001015181526020018d84815181106200064c577f4e487b7100000000000000000000000000000000000000000000000000000000600052603260045260246000fd5b602002602001015181526020018c848151811062000693577f4e487b7100000000000000000000000000000000000000000000000000000000600052603260045260246000fd5b602002602001015181526020018c8481518110620006da577f4e487b7100000000000000000000000000000000000000000000000000000000600052603260045260246000fd5b602002602001015181526020018b848151811062000721577f4e487b7100000000000000000000000000000000000000000000000000000000600052603260045260246000fd5b602002602001015181526020018a848151811062000768577f4e487b7100000000000000000000000000000000000000000000000000000000600052603260045260246000fd5b60200260200101518152509080600181540180825580915050600190039060005260206000209060070201600090919091909150600082015181600001556020820151816001019080519060200190620007c492919062000fd5565b506040820151816002019080519060200190620007e392919062000fd5565b50606082015181600301556080820151816004015560a0820151816005015560c0820151816006015550506000600982815481106200084b577f4e487b7100000000000000000000000000000000000000000000000000000000600052603260045260246000fd5b90600052602060002090600702016040518060e0016040529081600082015481526020016001820180546200088090620016b0565b80601f0160208091040260200160405190810160405280929190818152602001828054620008ae90620016b0565b8015620008ff5780601f10620008d357610100808354040283529160200191620008ff565b820191906000526020600020905b815481529060010190602001808311620008e157829003601f168201915b505050505081526020016002820180546200091a90620016b0565b80601f01602080910402602001604051908101604052809291908181526020018280546200094890620016b0565b8015620009995780601f106200096d5761010080835404028352916020019162000999565b820191906000526020600020905b8154815290600101906020018083116200097b57829003601f168201915b50505050508152602001600382015481526020016004820154815260200160058201548152602001600682015481525050905062000a0a604051806060016040528060258152602001620062236025913982602001518360600151846040015162000a5a60201b62001fbd1760201c565b50808062000a1890620016e6565b915050620005ae565b5062000a39600662000b0660201b6200205f1760201c565b62000a4962000b1c60201b60201c565b50505050505050505050506200185d565b62000b008484848460405160240162000a779493929190620014f9565b6040516020818303038152906040527f8d142cdd000000000000000000000000000000000000000000000000000000007bffffffffffffffffffffffffffffffffffffffffffffffffffffffff19166020820180517bffffffffffffffffffffffffffffffffffffffffffffffffffffffff838183161783525050505062000f7760201b60201c565b50505050565b6001816000016000828254019250508190555050565b6000600a8054905062000b3462000fa060201b60201c565b62000b4091906200173e565b90506000604051806101000160405280838152602001600a848154811062000b91577f4e487b7100000000000000000000000000000000000000000000000000000000600052603260045260246000fd5b9060005260206000209060080201600101805462000baf90620016b0565b80601f016020809104026020016040519081016040528092919081815260200182805462000bdd90620016b0565b801562000c2e5780601f1062000c025761010080835404028352916020019162000c2e565b820191906000526020600020905b81548152906001019060200180831162000c1057829003601f168201915b50505050508152602001600a848154811062000c73577f4e487b7100000000000000000000000000000000000000000000000000000000600052603260045260246000fd5b9060005260206000209060080201600201805462000c9190620016b0565b80601f016020809104026020016040519081016040528092919081815260200182805462000cbf90620016b0565b801562000d105780601f1062000ce45761010080835404028352916020019162000d10565b820191906000526020600020905b81548152906001019060200180831162000cf257829003601f168201915b50505050508152602001600a848154811062000d55577f4e487b7100000000000000000000000000000000000000000000000000000000600052603260045260246000fd5b9060005260206000209060080201600301548152602001600a848154811062000da7577f4e487b7100000000000000000000000000000000000000000000000000000000600052603260045260246000fd5b9060005260206000209060080201600401548152602001600a848154811062000df9577f4e487b7100000000000000000000000000000000000000000000000000000000600052603260045260246000fd5b9060005260206000209060080201600501548152602001600a848154811062000e4b577f4e487b7100000000000000000000000000000000000000000000000000000000600052603260045260246000fd5b9060005260206000209060080201600601548152602001600a848154811062000e9d577f4e487b7100000000000000000000000000000000000000000000000000000000600052603260045260246000fd5b906000526020600020906008020160070154815250905080600b60008201518160000155602082015181600101908051906020019062000edf92919062000fd5565b50604082015181600201908051906020019062000efe92919062000fd5565b50606082015181600301556080820151816004015560a0820151816005015560c0820151816006015560e082015181600701559050507f427357d424b7b15a5c4287252d2bf9703827264ea01ad136ed2b71263c2fc38f82826020015160405162000f6b9291906200155b565b60405180910390a15050565b60008151905060006a636f6e736f6c652e6c6f679050602083016000808483855afa5050505050565b6000444260405160200162000fb7929190620014c9565b6040516020818303038152906040528051906020012060001c905090565b82805462000fe390620016b0565b90600052602060002090601f01602090048101928262001007576000855562001053565b82601f106200102257805160ff191683800117855562001053565b8280016001018555821562001053579182015b828111156200105257825182559160200191906001019062001035565b5b50905062001062919062001066565b5090565b5b808211156200108157600081600090555060010162001067565b5090565b60006200109c6200109684620015c3565b6200158f565b9050808382526020820190508260005b85811015620010e05781518501620010c58882620011fe565b845260208401935060208301925050600181019050620010ac565b5050509392505050565b600062001101620010fb84620015f2565b6200158f565b905080838252602082019050828560208602820111156200112157600080fd5b60005b858110156200115557816200113a88826200122b565b84526020840193506020830192505060018101905062001124565b5050509392505050565b600062001176620011708462001621565b6200158f565b9050828152602081018484840111156200118f57600080fd5b6200119c8482856200167a565b509392505050565b600082601f830112620011b657600080fd5b8151620011c884826020860162001085565b91505092915050565b600082601f830112620011e357600080fd5b8151620011f5848260208601620010ea565b91505092915050565b600082601f8301126200121057600080fd5b8151620012228482602086016200115f565b91505092915050565b6000815190506200123c8162001843565b92915050565b60008060008060008060008060008060006101608c8e0312156200126557600080fd5b60008c015167ffffffffffffffff8111156200128057600080fd5b6200128e8e828f01620011a4565b9b505060208c015167ffffffffffffffff811115620012ac57600080fd5b620012ba8e828f01620011a4565b9a505060408c015167ffffffffffffffff811115620012d857600080fd5b620012e68e828f01620011d1565b99505060608c015167ffffffffffffffff8111156200130457600080fd5b620013128e828f01620011d1565b98505060808c015167ffffffffffffffff8111156200133057600080fd5b6200133e8e828f01620011d1565b97505060a08c015167ffffffffffffffff8111156200135c57600080fd5b6200136a8e828f01620011a4565b96505060c08c015167ffffffffffffffff8111156200138857600080fd5b620013968e828f01620011a4565b95505060e08c015167ffffffffffffffff811115620013b457600080fd5b620013c28e828f01620011d1565b9450506101008c015167ffffffffffffffff811115620013e157600080fd5b620013ef8e828f01620011d1565b9350506101208c015167ffffffffffffffff8111156200140e57600080fd5b6200141c8e828f01620011d1565b9250506101408c015167ffffffffffffffff8111156200143b57600080fd5b620014498e828f01620011d1565b9150509295989b509295989b9093969950565b6000620014698262001654565b6200147581856200165f565b9350620014878185602086016200167a565b620014928162001832565b840191505092915050565b620014a88162001670565b82525050565b620014c3620014bd8262001670565b62001734565b82525050565b6000620014d78285620014ae565b602082019150620014e98284620014ae565b6020820191508190509392505050565b600060808201905081810360008301526200151581876200145c565b905081810360208301526200152b81866200145c565b90506200153c60408301856200149d565b81810360608301526200155081846200145c565b905095945050505050565b60006040820190506200157260008301856200149d565b81810360208301526200158681846200145c565b90509392505050565b6000604051905081810181811067ffffffffffffffff82111715620015b957620015b862001803565b5b8060405250919050565b600067ffffffffffffffff821115620015e157620015e062001803565b5b602082029050602081019050919050565b600067ffffffffffffffff82111562001610576200160f62001803565b5b602082029050602081019050919050565b600067ffffffffffffffff8211156200163f576200163e62001803565b5b601f19601f8301169050602081019050919050565b600081519050919050565b600082825260208201905092915050565b6000819050919050565b60005b838110156200169a5780820151818401526020810190506200167d565b83811115620016aa576000848401525b50505050565b60006002820490506001821680620016c957607f821691505b60208210811415620016e057620016df620017d4565b5b50919050565b6000620016f38262001670565b91507fffffffffffffffffffffffffffffffffffffffffffffffffffffffffffffffff82141562001729576200172862001776565b5b600182019050919050565b6000819050919050565b60006200174b8262001670565b9150620017588362001670565b9250826200176b576200176a620017a5565b5b828206905092915050565b7f4e487b7100000000000000000000000000000000000000000000000000000000600052601160045260246000fd5b7f4e487b7100000000000000000000000000000000000000000000000000000000600052601260045260246000fd5b7f4e487b7100000000000000000000000000000000000000000000000000000000600052602260045260246000fd5b7f4e487b7100000000000000000000000000000000000000000000000000000000600052604160045260246000fd5b6000601f19601f8301169050919050565b6200184e8162001670565b81146200185a57600080fd5b50565b6149b6806200186d6000396000f3fe608060405234801561001057600080fd5b50600436106101375760003560e01c806395d89b41116100b8578063c76d9e7d1161007c578063c76d9e7d14610364578063c87b56dd14610382578063c8cf27f4146103b2578063d4f24c5b146103d0578063e985e9c5146103da578063fe9105191461040a57610137565b806395d89b41146102ba578063a22cb465146102d8578063b88d4fde146102f4578063b953084e14610310578063c44f6a4f1461032e57610137565b806342842e0e116100ff57806342842e0e146101f25780636352211e1461020e57806370a082311461023e5780637df124a11461026e578063926427441461029e57610137565b806301ffc9a71461013c57806306fdde031461016c578063081812fc1461018a578063095ea7b3146101ba57806323b872dd146101d6575b600080fd5b6101566004803603810190610151919061322c565b610414565b6040516101639190614021565b60405180910390f35b6101746104f6565b604051610181919061403c565b60405180910390f35b6101a4600480360381019061019f919061327e565b610588565b6040516101b19190613f61565b60405180910390f35b6101d460048036038101906101cf91906131f0565b61060d565b005b6101f060048036038101906101eb91906130ea565b610725565b005b61020c600480360381019061020791906130ea565b610785565b005b6102286004803603810190610223919061327e565b6107a5565b6040516102359190613f61565b60405180910390f35b61025860048036038101906102539190613085565b610857565b604051610265919061434d565b60405180910390f35b61028860048036038101906102839190613085565b61090f565b604051610295919061434d565b60405180910390f35b6102b860048036038101906102b3919061327e565b610927565b005b6102c2610d76565b6040516102cf919061403c565b60405180910390f35b6102f260048036038101906102ed91906131b4565b610e08565b005b61030e60048036038101906103099190613139565b610f89565b005b610318610feb565b6040516103259190613fff565b60405180910390f35b6103486004803603810190610343919061327e565b6111a0565b60405161035b9796959493929190614398565b60405180910390f35b61036c6112f2565b6040516103799190614309565b60405180910390f35b61039c6004803603810190610397919061327e565b61146d565b6040516103a9919061403c565b60405180910390f35b6103ba6116a6565b6040516103c7919061432b565b60405180910390f35b6103d8611888565b005b6103f460048036038101906103ef91906130ae565b611af5565b6040516104019190614021565b60405180910390f35b610412611b89565b005b60007f80ac58cd000000000000000000000000000000000000000000000000000000007bffffffffffffffffffffffffffffffffffffffffffffffffffffffff1916827bffffffffffffffffffffffffffffffffffffffffffffffffffffffff191614806104df57507f5b5e139f000000000000000000000000000000000000000000000000000000007bffffffffffffffffffffffffffffffffffffffffffffffffffffffff1916827bffffffffffffffffffffffffffffffffffffffffffffffffffffffff1916145b806104ef57506104ee82612075565b5b9050919050565b606060008054610505906146f7565b80601f0160208091040260200160405190810160405280929190818152602001828054610531906146f7565b801561057e5780601f106105535761010080835404028352916020019161057e565b820191906000526020600020905b81548152906001019060200180831161056157829003601f168201915b5050505050905090565b6000610593826120df565b6105d2576040517f08c379a00000000000000000000000000000000000000000000000000000000081526004016105c990614269565b60405180910390fd5b6004600083815260200190815260200160002060009054906101000a900473ffffffffffffffffffffffffffffffffffffffff169050919050565b6000610618826107a5565b90508073ffffffffffffffffffffffffffffffffffffffff168373ffffffffffffffffffffffffffffffffffffffff161415610689576040517f08c379a0000000000000000000000000000000000000000000000000000000008152600401610680906142a9565b60405180910390fd5b8073ffffffffffffffffffffffffffffffffffffffff166106a861214b565b73ffffffffffffffffffffffffffffffffffffffff1614806106d757506106d6816106d161214b565b611af5565b5b610716576040517f08c379a000000000000000000000000000000000000000000000000000000000815260040161070d906141e9565b60405180910390fd5b6107208383612153565b505050565b61073661073061214b565b8261220c565b610775576040517f08c379a000000000000000000000000000000000000000000000000000000000815260040161076c906142c9565b60405180910390fd5b6107808383836122ea565b505050565b6107a083838360405180602001604052806000815250610f89565b505050565b6000806002600084815260200190815260200160002060009054906101000a900473ffffffffffffffffffffffffffffffffffffffff169050600073ffffffffffffffffffffffffffffffffffffffff168173ffffffffffffffffffffffffffffffffffffffff16141561084e576040517f08c379a000000000000000000000000000000000000000000000000000000000815260040161084590614229565b60405180910390fd5b80915050919050565b60008073ffffffffffffffffffffffffffffffffffffffff168273ffffffffffffffffffffffffffffffffffffffff1614156108c8576040517f08c379a00000000000000000000000000000000000000000000000000000000081526004016108bf90614209565b60405180910390fd5b600360008373ffffffffffffffffffffffffffffffffffffffff1673ffffffffffffffffffffffffffffffffffffffff168152602001908152602001600020549050919050565b60086020528060005260406000206000915090505481565b60006109336006612546565b905061093f3382612554565b6040518060e001604052808381526020016009848154811061098a577f4e487b7100000000000000000000000000000000000000000000000000000000600052603260045260246000fd5b906000526020600020906007020160010180546109a6906146f7565b80601f01602080910402602001604051908101604052809291908181526020018280546109d2906146f7565b8015610a1f5780601f106109f457610100808354040283529160200191610a1f565b820191906000526020600020905b815481529060010190602001808311610a0257829003601f168201915b5050505050815260200160098481548110610a63577f4e487b7100000000000000000000000000000000000000000000000000000000600052603260045260246000fd5b90600052602060002090600702016002018054610a7f906146f7565b80601f0160208091040260200160405190810160405280929190818152602001828054610aab906146f7565b8015610af85780601f10610acd57610100808354040283529160200191610af8565b820191906000526020600020905b815481529060010190602001808311610adb57829003601f168201915b5050505050815260200160098481548110610b3c577f4e487b7100000000000000000000000000000000000000000000000000000000600052603260045260246000fd5b906000526020600020906007020160030154815260200160098481548110610b8d577f4e487b7100000000000000000000000000000000000000000000000000000000600052603260045260246000fd5b906000526020600020906007020160040154815260200160098481548110610bde577f4e487b7100000000000000000000000000000000000000000000000000000000600052603260045260246000fd5b906000526020600020906007020160050154815260200160098481548110610c2f577f4e487b7100000000000000000000000000000000000000000000000000000000600052603260045260246000fd5b90600052602060002090600702016006015481525060076000838152602001908152602001600020600082015181600001556020820151816001019080519060200190610c7d929190612e8f565b506040820151816002019080519060200190610c9a929190612e8f565b50606082015181600301556080820151816004015560a0820151816005015560c08201518160060155905050610ce96040518060600160405280602e8152602001614953602e91398284612572565b80600860003373ffffffffffffffffffffffffffffffffffffffff1673ffffffffffffffffffffffffffffffffffffffff16815260200190815260200160002081905550610d37600661205f565b7f4bc303fd457a97b4691b9af582ce71868a3d258638c8d4f8c60988a0f0bfb8cd338284604051610d6a93929190613fc8565b60405180910390a15050565b606060018054610d85906146f7565b80601f0160208091040260200160405190810160405280929190818152602001828054610db1906146f7565b8015610dfe5780601f10610dd357610100808354040283529160200191610dfe565b820191906000526020600020905b815481529060010190602001808311610de157829003601f168201915b5050505050905090565b610e1061214b565b73ffffffffffffffffffffffffffffffffffffffff168273ffffffffffffffffffffffffffffffffffffffff161415610e7e576040517f08c379a0000000000000000000000000000000000000000000000000000000008152600401610e75906141a9565b60405180910390fd5b8060056000610e8b61214b565b73ffffffffffffffffffffffffffffffffffffffff1673ffffffffffffffffffffffffffffffffffffffff16815260200190815260200160002060008473ffffffffffffffffffffffffffffffffffffffff1673ffffffffffffffffffffffffffffffffffffffff16815260200190815260200160002060006101000a81548160ff0219169083151502179055508173ffffffffffffffffffffffffffffffffffffffff16610f3861214b565b73ffffffffffffffffffffffffffffffffffffffff167f17307eab39ab6107e8899845ad3d59bd9653f200f220920489ca2b5937696c3183604051610f7d9190614021565b60405180910390a35050565b610f9a610f9461214b565b8361220c565b610fd9576040517f08c379a0000000000000000000000000000000000000000000000000000000008152600401610fd0906142c9565b60405180910390fd5b610fe584848484612611565b50505050565b60606009805480602002602001604051908101604052809291908181526020016000905b8282101561119757838290600052602060002090600702016040518060e00160405290816000820154815260200160018201805461104c906146f7565b80601f0160208091040260200160405190810160405280929190818152602001828054611078906146f7565b80156110c55780601f1061109a576101008083540402835291602001916110c5565b820191906000526020600020905b8154815290600101906020018083116110a857829003601f168201915b505050505081526020016002820180546110de906146f7565b80601f016020809104026020016040519081016040528092919081815260200182805461110a906146f7565b80156111575780601f1061112c57610100808354040283529160200191611157565b820191906000526020600020905b81548152906001019060200180831161113a57829003601f168201915b505050505081526020016003820154815260200160048201548152602001600582015481526020016006820154815250508152602001906001019061100f565b50505050905090565b60076020528060005260406000206000915090508060000154908060010180546111c9906146f7565b80601f01602080910402602001604051908101604052809291908181526020018280546111f5906146f7565b80156112425780601f1061121757610100808354040283529160200191611242565b820191906000526020600020905b81548152906001019060200180831161122557829003601f168201915b505050505090806002018054611257906146f7565b80601f0160208091040260200160405190810160405280929190818152602001828054611283906146f7565b80156112d05780601f106112a5576101008083540402835291602001916112d0565b820191906000526020600020905b8154815290600101906020018083116112b357829003601f168201915b5050505050908060030154908060040154908060050154908060060154905087565b6112fa612f15565b600b6040518061010001604052908160008201548152602001600182018054611322906146f7565b80601f016020809104026020016040519081016040528092919081815260200182805461134e906146f7565b801561139b5780601f106113705761010080835404028352916020019161139b565b820191906000526020600020905b81548152906001019060200180831161137e57829003601f168201915b505050505081526020016002820180546113b4906146f7565b80601f01602080910402602001604051908101604052809291908181526020018280546113e0906146f7565b801561142d5780601f106114025761010080835404028352916020019161142d565b820191906000526020600020905b81548152906001019060200180831161141057829003601f168201915b5050505050815260200160038201548152602001600482015481526020016005820154815260200160068201548152602001600782015481525050905090565b60606000600760008481526020019081526020016000206040518060e0016040529081600082015481526020016001820180546114a9906146f7565b80601f01602080910402602001604051908101604052809291908181526020018280546114d5906146f7565b80156115225780601f106114f757610100808354040283529160200191611522565b820191906000526020600020905b81548152906001019060200180831161150557829003601f168201915b5050505050815260200160028201805461153b906146f7565b80601f0160208091040260200160405190810160405280929190818152602001828054611567906146f7565b80156115b45780601f10611589576101008083540402835291602001916115b4565b820191906000526020600020905b81548152906001019060200180831161159757829003601f168201915b50505050508152602001600382015481526020016004820154815260200160058201548152602001600682015481525050905060006115f6826060015161266d565b90506000611607836080015161266d565b905060006116188460a0015161266d565b905060006116298560c0015161266d565b90506000611671866020015161163e8a61266d565b88604001518888888860405160200161165d9796959493929190613e56565b60405160208183030381529060405261281a565b90506000816040516020016116869190613f13565b604051602081830303815290604052905080975050505050505050919050565b6116ae612f5a565b6000600860003373ffffffffffffffffffffffffffffffffffffffff1673ffffffffffffffffffffffffffffffffffffffff168152602001908152602001600020549050600081111561187757600760008281526020019081526020016000206040518060e001604052908160008201548152602001600182018054611733906146f7565b80601f016020809104026020016040519081016040528092919081815260200182805461175f906146f7565b80156117ac5780601f10611781576101008083540402835291602001916117ac565b820191906000526020600020905b81548152906001019060200180831161178f57829003601f168201915b505050505081526020016002820180546117c5906146f7565b80601f01602080910402602001604051908101604052809291908181526020018280546117f1906146f7565b801561183e5780601f106118135761010080835404028352916020019161183e565b820191906000526020600020905b81548152906001019060200180831161182157829003601f168201915b50505050508152602001600382015481526020016004820154815260200160058201548152602001600682015481525050915050611885565b61187f612f5a565b80925050505b90565b6000600b60030154141561189f5761189e611b89565b5b6000600860003373ffffffffffffffffffffffffffffffffffffffff1673ffffffffffffffffffffffffffffffffffffffff16815260200190815260200160002054905060006007600083815260200190815260200160002090506000816003015411611941576040517f08c379a0000000000000000000000000000000000000000000000000000000008152600401611938906142e9565b60405180910390fd5b6000600b60070154826006015461195891906145b3565b600b60060154836005015461196d91906145b3565b611977919061452c565b905080600b600301541015611996576000600b600301819055506119b3565b80600b60030160008282546119ab919061460d565b925050819055505b600b60050154826003015410156119d357600082600301819055506119f4565b600b600501548260030160008282546119ec919061460d565b925050819055505b611aae6040518060600160405280603c81526020016148d7603c9139600b6001018054611a20906146f7565b80601f0160208091040260200160405190810160405280929190818152602001828054611a4c906146f7565b8015611a995780601f10611a6e57610100808354040283529160200191611a99565b820191906000526020600020905b815481529060010190602001808311611a7c57829003601f168201915b5050505050600b6003015485600301546129b9565b7f838ab28464562786a6c4ab2311964b82fa60bd9b14aa7e856af1f3f18d41a414600b600301548360030154604051611ae8929190614415565b60405180910390a1505050565b6000600560008473ffffffffffffffffffffffffffffffffffffffff1673ffffffffffffffffffffffffffffffffffffffff16815260200190815260200160002060008373ffffffffffffffffffffffffffffffffffffffff1673ffffffffffffffffffffffffffffffffffffffff16815260200190815260200160002060009054906101000a900460ff16905092915050565b6000600a80549050611b99612a5b565b611ba3919061477c565b90506000604051806101000160405280838152602001600a8481548110611bf3577f4e487b7100000000000000000000000000000000000000000000000000000000600052603260045260246000fd5b90600052602060002090600802016001018054611c0f906146f7565b80601f0160208091040260200160405190810160405280929190818152602001828054611c3b906146f7565b8015611c885780601f10611c5d57610100808354040283529160200191611c88565b820191906000526020600020905b815481529060010190602001808311611c6b57829003601f168201915b50505050508152602001600a8481548110611ccc577f4e487b7100000000000000000000000000000000000000000000000000000000600052603260045260246000fd5b90600052602060002090600802016002018054611ce8906146f7565b80601f0160208091040260200160405190810160405280929190818152602001828054611d14906146f7565b8015611d615780601f10611d3657610100808354040283529160200191611d61565b820191906000526020600020905b815481529060010190602001808311611d4457829003601f168201915b50505050508152602001600a8481548110611da5577f4e487b7100000000000000000000000000000000000000000000000000000000600052603260045260246000fd5b9060005260206000209060080201600301548152602001600a8481548110611df6577f4e487b7100000000000000000000000000000000000000000000000000000000600052603260045260246000fd5b9060005260206000209060080201600401548152602001600a8481548110611e47577f4e487b7100000000000000000000000000000000000000000000000000000000600052603260045260246000fd5b9060005260206000209060080201600501548152602001600a8481548110611e98577f4e487b7100000000000000000000000000000000000000000000000000000000600052603260045260246000fd5b9060005260206000209060080201600601548152602001600a8481548110611ee9577f4e487b7100000000000000000000000000000000000000000000000000000000600052603260045260246000fd5b906000526020600020906008020160070154815250905080600b600082015181600001556020820151816001019080519060200190611f29929190612e8f565b506040820151816002019080519060200190611f46929190612e8f565b50606082015181600301556080820151816004015560a0820151816005015560c0820151816006015560e082015181600701559050507f427357d424b7b15a5c4287252d2bf9703827264ea01ad136ed2b71263c2fc38f828260200151604051611fb1929190614368565b60405180910390a15050565b61205984848484604051602401611fd7949392919061405e565b6040516020818303038152906040527f8d142cdd000000000000000000000000000000000000000000000000000000007bffffffffffffffffffffffffffffffffffffffffffffffffffffffff19166020820180517bffffffffffffffffffffffffffffffffffffffffffffffffffffffff8381831617835250505050612a8e565b50505050565b6001816000016000828254019250508190555050565b60007f01ffc9a7000000000000000000000000000000000000000000000000000000007bffffffffffffffffffffffffffffffffffffffffffffffffffffffff1916827bffffffffffffffffffffffffffffffffffffffffffffffffffffffff1916149050919050565b60008073ffffffffffffffffffffffffffffffffffffffff166002600084815260200190815260200160002060009054906101000a900473ffffffffffffffffffffffffffffffffffffffff1673ffffffffffffffffffffffffffffffffffffffff1614159050919050565b600033905090565b816004600083815260200190815260200160002060006101000a81548173ffffffffffffffffffffffffffffffffffffffff021916908373ffffffffffffffffffffffffffffffffffffffff160217905550808273ffffffffffffffffffffffffffffffffffffffff166121c6836107a5565b73ffffffffffffffffffffffffffffffffffffffff167f8c5be1e5ebec7d5bd14f71427d1e84f3dd0314c0f7b2291e5b200ac8c7c3b92560405160405180910390a45050565b6000612217826120df565b612256576040517f08c379a000000000000000000000000000000000000000000000000000000000815260040161224d906141c9565b60405180910390fd5b6000612261836107a5565b90508073ffffffffffffffffffffffffffffffffffffffff168473ffffffffffffffffffffffffffffffffffffffff1614806122d057508373ffffffffffffffffffffffffffffffffffffffff166122b884610588565b73ffffffffffffffffffffffffffffffffffffffff16145b806122e157506122e08185611af5565b5b91505092915050565b8273ffffffffffffffffffffffffffffffffffffffff1661230a826107a5565b73ffffffffffffffffffffffffffffffffffffffff1614612360576040517f08c379a000000000000000000000000000000000000000000000000000000000815260040161235790614289565b60405180910390fd5b600073ffffffffffffffffffffffffffffffffffffffff168273ffffffffffffffffffffffffffffffffffffffff1614156123d0576040517f08c379a00000000000000000000000000000000000000000000000000000000081526004016123c790614189565b60405180910390fd5b6123db838383612ab7565b6123e6600082612153565b6001600360008573ffffffffffffffffffffffffffffffffffffffff1673ffffffffffffffffffffffffffffffffffffffff1681526020019081526020016000206000828254612436919061460d565b925050819055506001600360008473ffffffffffffffffffffffffffffffffffffffff1673ffffffffffffffffffffffffffffffffffffffff168152602001908152602001600020600082825461248d919061452c565b92505081905550816002600083815260200190815260200160002060006101000a81548173ffffffffffffffffffffffffffffffffffffffff021916908373ffffffffffffffffffffffffffffffffffffffff160217905550808273ffffffffffffffffffffffffffffffffffffffff168473ffffffffffffffffffffffffffffffffffffffff167fddf252ad1be2c89b69c2b068fc378daa952ba7f163c4a11628f55a4df523b3ef60405160405180910390a4505050565b600081600001549050919050565b61256e828260405180602001604052806000815250612abc565b5050565b61260c83838360405160240161258a9392919061410b565b6040516020818303038152906040527f969cdd03000000000000000000000000000000000000000000000000000000007bffffffffffffffffffffffffffffffffffffffffffffffffffffffff19166020820180517bffffffffffffffffffffffffffffffffffffffffffffffffffffffff8381831617835250505050612a8e565b505050565b61261c8484846122ea565b61262884848484612b17565b612667576040517f08c379a000000000000000000000000000000000000000000000000000000000815260040161265e90614149565b60405180910390fd5b50505050565b606060008214156126b5576040518060400160405280600181526020017f30000000000000000000000000000000000000000000000000000000000000008152509050612815565b600082905060005b600082146126e75780806126d090614729565b915050600a826126e09190614582565b91506126bd565b60008167ffffffffffffffff811115612729577f4e487b7100000000000000000000000000000000000000000000000000000000600052604160045260246000fd5b6040519080825280601f01601f19166020018201604052801561275b5781602001600182028036833780820191505090505b5090505b6000851461280e57600182612774919061460d565b9150600a85612783919061477c565b603061278f919061452c565b60f81b8183815181106127cb577f4e487b7100000000000000000000000000000000000000000000000000000000600052603260045260246000fd5b60200101907effffffffffffffffffffffffffffffffffffffffffffffffffffffffffffff1916908160001a905350600a856128079190614582565b945061275f565b8093505050505b919050565b606060008251141561283d576040518060200160405280600081525090506129b4565b6000604051806060016040528060408152602001614913604091399050600060036002855161286c919061452c565b6128769190614582565b600461288291906145b3565b90506000602082612893919061452c565b67ffffffffffffffff8111156128d2577f4e487b7100000000000000000000000000000000000000000000000000000000600052604160045260246000fd5b6040519080825280601f01601f1916602001820160405280156129045781602001600182028036833780820191505090505b509050818152600183018586518101602084015b81831015612973576003830192508251603f8160121c168501518253600182019150603f81600c1c168501518253600182019150603f8160061c168501518253600182019150603f8116850151825360018201915050612918565b60038951066001811461298d576002811461299d576129a8565b613d3d60f01b60028303526129a8565b603d60f81b60018303525b50505050508093505050505b919050565b612a55848484846040516024016129d394939291906140b8565b6040516020818303038152906040527fd5cf17d0000000000000000000000000000000000000000000000000000000007bffffffffffffffffffffffffffffffffffffffffffffffffffffffff19166020820180517bffffffffffffffffffffffffffffffffffffffffffffffffffffffff8381831617835250505050612a8e565b50505050565b60004442604051602001612a70929190613f35565b6040516020818303038152906040528051906020012060001c905090565b60008151905060006a636f6e736f6c652e6c6f679050602083016000808483855afa5050505050565b505050565b612ac68383612cae565b612ad36000848484612b17565b612b12576040517f08c379a0000000000000000000000000000000000000000000000000000000008152600401612b0990614149565b60405180910390fd5b505050565b6000612b388473ffffffffffffffffffffffffffffffffffffffff16612e7c565b15612ca1578373ffffffffffffffffffffffffffffffffffffffff1663150b7a02612b6161214b565b8786866040518563ffffffff1660e01b8152600401612b839493929190613f7c565b602060405180830381600087803b158015612b9d57600080fd5b505af1925050508015612bce57506040513d601f19601f82011682018060405250810190612bcb9190613255565b60015b612c51573d8060008114612bfe576040519150601f19603f3d011682016040523d82523d6000602084013e612c03565b606091505b50600081511415612c49576040517f08c379a0000000000000000000000000000000000000000000000000000000008152600401612c4090614149565b60405180910390fd5b805181602001fd5b63150b7a0260e01b7bffffffffffffffffffffffffffffffffffffffffffffffffffffffff1916817bffffffffffffffffffffffffffffffffffffffffffffffffffffffff191614915050612ca6565b600190505b949350505050565b600073ffffffffffffffffffffffffffffffffffffffff168273ffffffffffffffffffffffffffffffffffffffff161415612d1e576040517f08c379a0000000000000000000000000000000000000000000000000000000008152600401612d1590614249565b60405180910390fd5b612d27816120df565b15612d67576040517f08c379a0000000000000000000000000000000000000000000000000000000008152600401612d5e90614169565b60405180910390fd5b612d7360008383612ab7565b6001600360008473ffffffffffffffffffffffffffffffffffffffff1673ffffffffffffffffffffffffffffffffffffffff1681526020019081526020016000206000828254612dc3919061452c565b92505081905550816002600083815260200190815260200160002060006101000a81548173ffffffffffffffffffffffffffffffffffffffff021916908373ffffffffffffffffffffffffffffffffffffffff160217905550808273ffffffffffffffffffffffffffffffffffffffff16600073ffffffffffffffffffffffffffffffffffffffff167fddf252ad1be2c89b69c2b068fc378daa952ba7f163c4a11628f55a4df523b3ef60405160405180910390a45050565b600080823b905060008111915050919050565b828054612e9b906146f7565b90600052602060002090601f016020900481019282612ebd5760008555612f04565b82601f10612ed657805160ff1916838001178555612f04565b82800160010185558215612f04579182015b82811115612f03578251825591602001919060010190612ee8565b5b509050612f119190612f97565b5090565b60405180610100016040528060008152602001606081526020016060815260200160008152602001600081526020016000815260200160008152602001600081525090565b6040518060e00160405280600081526020016060815260200160608152602001600081526020016000815260200160008152602001600081525090565b5b80821115612fb0576000816000905550600101612f98565b5090565b6000612fc7612fc28461446f565b61443e565b905082815260208101848484011115612fdf57600080fd5b612fea8482856146b5565b509392505050565b6000813590506130018161487a565b92915050565b60008135905061301681614891565b92915050565b60008135905061302b816148a8565b92915050565b600081519050613040816148a8565b92915050565b600082601f83011261305757600080fd5b8135613067848260208601612fb4565b91505092915050565b60008135905061307f816148bf565b92915050565b60006020828403121561309757600080fd5b60006130a584828501612ff2565b91505092915050565b600080604083850312156130c157600080fd5b60006130cf85828601612ff2565b92505060206130e085828601612ff2565b9150509250929050565b6000806000606084860312156130ff57600080fd5b600061310d86828701612ff2565b935050602061311e86828701612ff2565b925050604061312f86828701613070565b9150509250925092565b6000806000806080858703121561314f57600080fd5b600061315d87828801612ff2565b945050602061316e87828801612ff2565b935050604061317f87828801613070565b925050606085013567ffffffffffffffff81111561319c57600080fd5b6131a887828801613046565b91505092959194509250565b600080604083850312156131c757600080fd5b60006131d585828601612ff2565b92505060206131e685828601613007565b9150509250929050565b6000806040838503121561320357600080fd5b600061321185828601612ff2565b925050602061322285828601613070565b9150509250929050565b60006020828403121561323e57600080fd5b600061324c8482850161301c565b91505092915050565b60006020828403121561326757600080fd5b600061327584828501613031565b91505092915050565b60006020828403121561329057600080fd5b600061329e84828501613070565b91505092915050565b60006132b38383613cdb565b905092915050565b6132c481614641565b82525050565b60006132d5826144af565b6132df81856144dd565b9350836020820285016132f18561449f565b8060005b8581101561332d578484038952815161330e85826132a7565b9450613319836144d0565b925060208a019950506001810190506132f5565b50829750879550505050505092915050565b61334881614653565b82525050565b6000613359826144ba565b61336381856144ee565b93506133738185602086016146c4565b61337c81614869565b840191505092915050565b6000613392826144c5565b61339c81856144ff565b93506133ac8185602086016146c4565b6133b581614869565b840191505092915050565b60006133cb826144c5565b6133d58185614510565b93506133e58185602086016146c4565b6133ee81614869565b840191505092915050565b6000613404826144c5565b61340e8185614521565b935061341e8185602086016146c4565b80840191505092915050565b6000613437602c83614521565b91507f7d2c207b2274726169745f74797065223a202241747461636b2044616d61676560008301527f222c202276616c7565223a2000000000000000000000000000000000000000006020830152602c82019050919050565b600061349d603283614510565b91507f4552433732313a207472616e7366657220746f206e6f6e20455243373231526560008301527f63656976657220696d706c656d656e74657200000000000000000000000000006020830152604082019050919050565b6000613503600283614521565b91507f20230000000000000000000000000000000000000000000000000000000000006000830152600282019050919050565b6000613543601c83614510565b91507f4552433732313a20746f6b656e20616c7265616479206d696e746564000000006000830152602082019050919050565b6000613583600e83614521565b91507f2c20226d61785f76616c7565223a0000000000000000000000000000000000006000830152600e82019050919050565b60006135c3603b83614521565b91507f222c202261747472696275746573223a205b7b2274726169745f74797065223a60008301527f20224865616c746820506f696e7473222c202276616c7565223a2000000000006020830152603b82019050919050565b6000613629602483614510565b91507f4552433732313a207472616e7366657220746f20746865207a65726f2061646460008301527f72657373000000000000000000000000000000000000000000000000000000006020830152604082019050919050565b600061368f601983614510565b91507f4552433732313a20617070726f766520746f2063616c6c6572000000000000006000830152602082019050919050565b60006136cf602c83614510565b91507f4552433732313a206f70657261746f7220717565727920666f72206e6f6e657860008301527f697374656e7420746f6b656e00000000000000000000000000000000000000006020830152604082019050919050565b6000613735603883614510565b91507f4552433732313a20617070726f76652063616c6c6572206973206e6f74206f7760008301527f6e6572206e6f7220617070726f76656420666f7220616c6c00000000000000006020830152604082019050919050565b600061379b602a83614510565b91507f4552433732313a2062616c616e636520717565727920666f7220746865207a6560008301527f726f2061646472657373000000000000000000000000000000000000000000006020830152604082019050919050565b6000613801602983614510565b91507f4552433732313a206f776e657220717565727920666f72206e6f6e657869737460008301527f656e7420746f6b656e00000000000000000000000000000000000000000000006020830152604082019050919050565b6000613867602083614510565b91507f4552433732313a206d696e7420746f20746865207a65726f20616464726573736000830152602082019050919050565b60006138a7600383614521565b91507f7d5d7d00000000000000000000000000000000000000000000000000000000006000830152600382019050919050565b60006138e7602c83614510565b91507f4552433732313a20617070726f76656420717565727920666f72206e6f6e657860008301527f697374656e7420746f6b656e00000000000000000000000000000000000000006020830152604082019050919050565b600061394d602983614510565b91507f4552433732313a207472616e73666572206f6620746f6b656e2074686174206960008301527f73206e6f74206f776e00000000000000000000000000000000000000000000006020830152604082019050919050565b60006139b3600a83614521565b91507f7b226e616d65223a2022000000000000000000000000000000000000000000006000830152600a82019050919050565b60006139f3602183614510565b91507f4552433732313a20617070726f76616c20746f2063757272656e74206f776e6560008301527f72000000000000000000000000000000000000000000000000000000000000006020830152604082019050919050565b6000613a59601d83614521565b91507f646174613a6170706c69636174696f6e2f6a736f6e3b6261736536342c0000006000830152601d82019050919050565b6000613a99603183614510565b91507f4552433732313a207472616e736665722063616c6c6572206973206e6f74206f60008301527f776e6572206e6f7220617070726f7665640000000000000000000000000000006020830152604082019050919050565b6000613aff602b83614521565b91507f7d2c207b2274726169745f74797065223a202241747461636b20506f7765722260008301527f2c202276616c7565223a200000000000000000000000000000000000000000006020830152602b82019050919050565b6000613b65601e83614510565b91507f5468652061747461636b657220697320616c72656164792064656164202100006000830152602082019050919050565b6000613ba5604f83614521565b91507f222c20226465736372697074696f6e223a202254686973204e4654206c65742060008301527f70656f706c6520706c6179207468652062657374204e46542067616d6520657660208301527f6572222c2022696d616765223a202200000000000000000000000000000000006040830152604f82019050919050565b600061010083016000830151613c3d6000860182613e21565b5060208301518482036020860152613c558282613387565b91505060408301518482036040860152613c6f8282613387565b9150506060830151613c846060860182613e21565b506080830151613c976080860182613e21565b5060a0830151613caa60a0860182613e21565b5060c0830151613cbd60c0860182613e21565b5060e0830151613cd060e0860182613e21565b508091505092915050565b600060e083016000830151613cf36000860182613e21565b5060208301518482036020860152613d0b8282613387565b91505060408301518482036040860152613d258282613387565b9150506060830151613d3a6060860182613e21565b506080830151613d4d6080860182613e21565b5060a0830151613d6060a0860182613e21565b5060c0830151613d7360c0860182613e21565b508091505092915050565b600060e083016000830151613d966000860182613e21565b5060208301518482036020860152613dae8282613387565b91505060408301518482036040860152613dc88282613387565b9150506060830151613ddd6060860182613e21565b506080830151613df06080860182613e21565b5060a0830151613e0360a0860182613e21565b5060c0830151613e1660c0860182613e21565b508091505092915050565b613e2a816146ab565b82525050565b613e39816146ab565b82525050565b613e50613e4b826146ab565b614772565b82525050565b6000613e61826139a6565b9150613e6d828a6133f9565b9150613e78826134f6565b9150613e8482896133f9565b9150613e8f82613b98565b9150613e9b82886133f9565b9150613ea6826135b6565b9150613eb282876133f9565b9150613ebd82613576565b9150613ec982866133f9565b9150613ed48261342a565b9150613ee082856133f9565b9150613eeb82613af2565b9150613ef782846133f9565b9150613f028261389a565b915081905098975050505050505050565b6000613f1e82613a4c565b9150613f2a82846133f9565b915081905092915050565b6000613f418285613e3f565b602082019150613f518284613e3f565b6020820191508190509392505050565b6000602082019050613f7660008301846132bb565b92915050565b6000608082019050613f9160008301876132bb565b613f9e60208301866132bb565b613fab6040830185613e30565b8181036060830152613fbd818461334e565b905095945050505050565b6000606082019050613fdd60008301866132bb565b613fea6020830185613e30565b613ff76040830184613e30565b949350505050565b6000602082019050818103600083015261401981846132ca565b905092915050565b6000602082019050614036600083018461333f565b92915050565b6000602082019050818103600083015261405681846133c0565b905092915050565b6000608082019050818103600083015261407881876133c0565b9050818103602083015261408c81866133c0565b905061409b6040830185613e30565b81810360608301526140ad81846133c0565b905095945050505050565b600060808201905081810360008301526140d281876133c0565b905081810360208301526140e681866133c0565b90506140f56040830185613e30565b6141026060830184613e30565b95945050505050565b6000606082019050818103600083015261412581866133c0565b90506141346020830185613e30565b6141416040830184613e30565b949350505050565b6000602082019050818103600083015261416281613490565b9050919050565b6000602082019050818103600083015261418281613536565b9050919050565b600060208201905081810360008301526141a28161361c565b9050919050565b600060208201905081810360008301526141c281613682565b9050919050565b600060208201905081810360008301526141e2816136c2565b9050919050565b6000602082019050818103600083015261420281613728565b9050919050565b600060208201905081810360008301526142228161378e565b9050919050565b60006020820190508181036000830152614242816137f4565b9050919050565b600060208201905081810360008301526142628161385a565b9050919050565b60006020820190508181036000830152614282816138da565b9050919050565b600060208201905081810360008301526142a281613940565b9050919050565b600060208201905081810360008301526142c2816139e6565b9050919050565b600060208201905081810360008301526142e281613a8c565b9050919050565b6000602082019050818103600083015261430281613b58565b9050919050565b600060208201905081810360008301526143238184613c24565b905092915050565b600060208201905081810360008301526143458184613d7e565b905092915050565b60006020820190506143626000830184613e30565b92915050565b600060408201905061437d6000830185613e30565b818103602083015261438f81846133c0565b90509392505050565b600060e0820190506143ad600083018a613e30565b81810360208301526143bf81896133c0565b905081810360408301526143d381886133c0565b90506143e26060830187613e30565b6143ef6080830186613e30565b6143fc60a0830185613e30565b61440960c0830184613e30565b98975050505050505050565b600060408201905061442a6000830185613e30565b6144376020830184613e30565b9392505050565b6000604051905081810181811067ffffffffffffffff821117156144655761446461483a565b5b8060405250919050565b600067ffffffffffffffff82111561448a5761448961483a565b5b601f19601f8301169050602081019050919050565b6000819050602082019050919050565b600081519050919050565b600081519050919050565b600081519050919050565b6000602082019050919050565b600082825260208201905092915050565b600082825260208201905092915050565b600082825260208201905092915050565b600082825260208201905092915050565b600081905092915050565b6000614537826146ab565b9150614542836146ab565b9250827fffffffffffffffffffffffffffffffffffffffffffffffffffffffffffffffff03821115614577576145766147ad565b5b828201905092915050565b600061458d826146ab565b9150614598836146ab565b9250826145a8576145a76147dc565b5b828204905092915050565b60006145be826146ab565b91506145c9836146ab565b9250817fffffffffffffffffffffffffffffffffffffffffffffffffffffffffffffffff0483118215151615614602576146016147ad565b5b828202905092915050565b6000614618826146ab565b9150614623836146ab565b925082821015614636576146356147ad565b5b828203905092915050565b600061464c8261468b565b9050919050565b60008115159050919050565b60007fffffffff0000000000000000000000000000000000000000000000000000000082169050919050565b600073ffffffffffffffffffffffffffffffffffffffff82169050919050565b6000819050919050565b82818337600083830152505050565b60005b838110156146e25780820151818401526020810190506146c7565b838111156146f1576000848401525b50505050565b6000600282049050600182168061470f57607f821691505b602082108114156147235761472261480b565b5b50919050565b6000614734826146ab565b91507fffffffffffffffffffffffffffffffffffffffffffffffffffffffffffffffff821415614767576147666147ad565b5b600182019050919050565b6000819050919050565b6000614787826146ab565b9150614792836146ab565b9250826147a2576147a16147dc565b5b828206905092915050565b7f4e487b7100000000000000000000000000000000000000000000000000000000600052601160045260246000fd5b7f4e487b7100000000000000000000000000000000000000000000000000000000600052601260045260246000fd5b7f4e487b7100000000000000000000000000000000000000000000000000000000600052602260045260246000fd5b7f4e487b7100000000000000000000000000000000000000000000000000000000600052604160045260246000fd5b6000601f19601f8301169050919050565b61488381614641565b811461488e57600080fd5b50565b61489a81614653565b81146148a557600080fd5b50565b6148b18161465f565b81146148bc57600080fd5b50565b6148c8816146ab565b81146148d357600080fd5b5056fe41667465722074686520636f6d6261742c20626f737320257320697320617420256420485020616e6420706c617965722069732061742025642048504142434445464748494a4b4c4d4e4f505152535455565758595a6162636465666768696a6b6c6d6e6f707172737475767778797a303132333435363738392b2f4d696e746564204e465420772f20746f6b656e496420257320616e6420636861726163746572496e646578202573a264697066735822122053fc58ac7f59e643b1b462ab0a69d32862da55cc1efae2f68161d5389168833a64736f6c63430008000033446f6e6520696e697469616c697a696e6720257320772f2048502025732c20696d67202573446f6e6520696e697469616c697a696e6720626f737320257320772f2048502025732c20696d67202573",
  "linkReferences": {},
  "deployedLinkReferences": {}
}